{
  "_format": "hh-sol-artifact-1",
  "contractName": "GameArena",
  "sourceName": "contracts/facets/GameArena.sol",
  "abi": [
    {
      "anonymous": false,
      "inputs": [
        {
          "indexed": true,
          "internalType": "uint256",
          "name": "scores",
          "type": "uint256"
        }
      ],
      "name": "EmitScores",
      "type": "event"
    },
    {
      "anonymous": false,
      "inputs": [
        {
          "indexed": false,
          "internalType": "uint256[]",
          "name": "array",
          "type": "uint256[]"
        }
      ],
      "name": "ShowShuffledArray",
      "type": "event"
    },
    {
      "anonymous": false,
      "inputs": [
        {
          "components": [
            {
              "internalType": "address",
              "name": "playerAddress",
              "type": "address"
            },
            {
              "internalType": "uint256",
              "name": "score",
              "type": "uint256"
            }
          ],
          "indexed": false,
          "internalType": "struct GameArena.player[]",
          "name": "playerScores",
          "type": "tuple[]"
        }
      ],
      "name": "leaderBoard",
      "type": "event"
    },
    {
      "inputs": [
        {
          "internalType": "address",
          "name": "_player",
          "type": "address"
        },
        {
          "internalType": "uint256",
          "name": "_score",
          "type": "uint256"
        }
      ],
      "name": "displayLeaderBoard",
      "outputs": [],
      "stateMutability": "nonpayable",
      "type": "function"
    },
    {
      "inputs": [],
      "name": "emitLeaderBoard",
      "outputs": [
        {
          "components": [
            {
              "internalType": "address",
              "name": "playerAddress",
              "type": "address"
            },
            {
              "internalType": "uint256",
              "name": "score",
              "type": "uint256"
            }
          ],
          "internalType": "struct GameArena.player[]",
          "name": "x",
          "type": "tuple[]"
        }
      ],
      "stateMutability": "nonpayable",
      "type": "function"
    },
    {
      "inputs": [],
      "name": "init",
      "outputs": [],
      "stateMutability": "nonpayable",
      "type": "function"
    },
    {
      "inputs": [],
      "name": "shuffleCards",
      "outputs": [],
      "stateMutability": "nonpayable",
      "type": "function"
    }
  ],
  "bytecode": "0x608060405234801561001057600080fd5b50610950806100206000396000f3fe608060405234801561001057600080fd5b506004361061004c5760003560e01c806303de641b1461005157806358801f171461006f57806358c2ede714610079578063e1c7392a1461008c575b600080fd5b61005961009e565b60405161006691906107b5565b60405180910390f35b610077610299565b005b61007761008736600461077f565b610515565b61007763622d25f06004556001600555565b6004546060906100b1906201518061089a565b4210610109576004546000906100c790426108b2565b90505b60006100d962015180836108b2565b10610107576100eb62015180826108b2565b6005805491925060006100fd836108c9565b91905055506100ca565b505b60055460009081526009602052604090205467ffffffffffffffff81111561014157634e487b7160e01b600052604160045260246000fd5b60405190808252806020026020018201604052801561018657816020015b604080518082019091526000808252602082015281526020019060019003908161015f5790505b50905060005b60055460009081526009602052604090205481101561025e5760055460009081526009602052604081208054839081106101d657634e487b7160e01b600052603260045260246000fd5b60009182526020808320909101546001600160a01b03168083526008825260408084206005548552835292839020548351808501909452818452918301829052855190935090919085908590811061023e57634e487b7160e01b600052603260045260246000fd5b602002602001018190525050508080610256906108c9565b91505061018c565b507ff7f10e4431f219031a079fe20d92e2aaaf4e5f68352b410a6ca357c90dbbecff8160405161028e91906107b5565b60405180910390a190565b6004544210156102e65760405162461bcd60e51b815260206004820152601360248201527211d85b59481a185cdb89dd081cdd185c9d1959606a1b60448201526064015b60405180910390fd5b60016005556004546102fb906201518061089a565b42106103535760045460009061031190426108b2565b90505b600061032362015180836108b2565b106103515761033562015180826108b2565b600580549192506000610347836108c9565b9190505550610314565b505b336000908152600260209081526040808320600554845290915290205460ff16156103c05760405162461bcd60e51b815260206004820152601d60248201527f506c617965722068617320706c6179656420666f72207468652064617900000060448201526064016102dd565b3332146103df5760405162461bcd60e51b81526004016102dd90610854565b6103e76106b0565b600354600611156104da5760006103fc6106f4565b90506000805b60035481101561045d57826000600301828154811061043157634e487b7160e01b600052603260045260246000fd5b9060005260206000200154141561044b576001915061045d565b80610455816108c9565b915050610402565b50806104d357600380546001818101835560008390527fc2575a0e9e593c00f959f8c92f12db2869c3395a3b0502d05e2516446f71f85b90910184905581548492916104a8916108b2565b815481106104c657634e487b7160e01b600052603260045260246000fd5b6000918252602090912001555b50506103e7565b6040517f269b25a8d61305854c650b5c3386946d8c584bee96c267c38fe80e3485f31b3c9061050b9060039061080d565b60405180910390a1565b60045442101561055d5760405162461bcd60e51b815260206004820152601360248201527211d85b59481a185cdb89dd081cdd185c9d1959606a1b60448201526064016102dd565b6001600555600454610572906201518061089a565b42106105ca5760045460009061058890426108b2565b90505b600061059a62015180836108b2565b106105c8576105ac62015180826108b2565b6005805491925060006105be836108c9565b919050555061058b565b505b336000908152600260209081526040808320600554845290915290205460ff16156106375760405162461bcd60e51b815260206004820152601d60248201527f506c617965722068617320706c6179656420666f72207468652064617900000060448201526064016102dd565b3332146106565760405162461bcd60e51b81526004016102dd90610854565b60058054600090815260096020908152604080832080546001810182559084528284200180546001600160a01b039097166001600160a01b0319909716871790559482526008815284822092548252919091529190912055565b600354156106f25760038054806106d757634e487b7160e01b600052603160045260246000fd5b600190038181906000526020600020016000905590556106b0565b565b600080546012908280610706836108c9565b9091555050600080546040518391610748914291903390602001928352602083019190915260601b6bffffffffffffffffffffffff1916604082015260540190565b6040516020818303038152906040528051906020012060001c61076b91906108e4565b905061077881600161089a565b9250505090565b60008060408385031215610791578182fd5b82356001600160a01b03811681146107a7578283fd5b946020939093013593505050565b602080825282518282018190526000919060409081850190868401855b8281101561080057815180516001600160a01b031685528601518685015292840192908501906001016107d2565b5091979650505050505050565b6020808252825482820181905260008481528281209092916040850190845b818110156108485783548352600193840193928501920161082c565b50909695505050505050565b60208082526026908201527f506c6179657220686173206265656e207265676973746572656420666f72207460408201526568652064617960d01b606082015260800190565b600082198211156108ad576108ad610904565b500190565b6000828210156108c4576108c4610904565b500390565b60006000198214156108dd576108dd610904565b5060010190565b6000826108ff57634e487b7160e01b81526012600452602481fd5b500690565b634e487b7160e01b600052601160045260246000fdfea2646970667358221220d3196ecf1ab8054b7c902efe65e68510f7b4b22299c1ba0dd41099c97b07349664736f6c63430008040033",
  "linkReferences": {},
  "deployedLinkReferences": {}
}