{
  "_format": "hh-sol-artifact-1",
  "contractName": "GameArena",
  "sourceName": "contracts/facets/GameArena.sol",
  "abi": [
    {
      "anonymous": false,
      "inputs": [
        {
          "indexed": true,
          "internalType": "uint256",
          "name": "scores",
          "type": "uint256"
        }
      ],
      "name": "EmitScores",
      "type": "event"
    },
    {
      "anonymous": false,
      "inputs": [
        {
          "indexed": false,
          "internalType": "uint256[]",
          "name": "array",
          "type": "uint256[]"
        }
      ],
      "name": "ShowShuffledArray",
      "type": "event"
    },
    {
      "anonymous": false,
      "inputs": [
        {
          "components": [
            {
              "internalType": "address",
              "name": "playerAddress",
              "type": "address"
            },
            {
              "internalType": "uint256",
              "name": "score",
              "type": "uint256"
            }
          ],
          "indexed": false,
          "internalType": "struct GameArena.player[]",
          "name": "playerScores",
          "type": "tuple[]"
        }
      ],
      "name": "leaderBoard",
      "type": "event"
    },
    {
      "inputs": [
        {
          "internalType": "uint256[6]",
          "name": "playerNumbers",
          "type": "uint256[6]"
        }
      ],
      "name": "checkPlayerScore",
      "outputs": [],
      "stateMutability": "nonpayable",
      "type": "function"
    },
    {
      "inputs": [],
      "name": "displayLeaderBoard",
      "outputs": [
        {
          "components": [
            {
              "internalType": "address",
              "name": "playerAddress",
              "type": "address"
            },
            {
              "internalType": "uint256",
              "name": "score",
              "type": "uint256"
            }
          ],
          "internalType": "struct GameArena.player[]",
          "name": "x",
          "type": "tuple[]"
        }
      ],
      "stateMutability": "nonpayable",
      "type": "function"
    },
    {
      "inputs": [],
      "name": "init",
      "outputs": [],
      "stateMutability": "nonpayable",
      "type": "function"
    },
    {
      "inputs": [],
      "name": "shuffleCards",
      "outputs": [],
      "stateMutability": "nonpayable",
      "type": "function"
    }
  ],
  "bytecode": "0x608060405234801561001057600080fd5b50610b5b806100206000396000f3fe608060405234801561001057600080fd5b506004361061004c5760003560e01c806308034b0b1461005157806358801f171461006657806384e95fc01461006e578063e1c7392a1461008c575b600080fd5b61006461005f366004610928565b61009e565b005b6100646103fa565b61007661066c565b60405161008391906109aa565b60405180910390f35b61006463622d25f06004556001600555565b6004544210156100eb5760405162461bcd60e51b815260206004820152601360248201527211d85b59481a185cdb89dd081cdd185c9d1959606a1b60448201526064015b60405180910390fd5b6004546100fb9062015180610a8f565b4210610153576004546000906101119042610aa7565b90505b60006101236201518083610aa7565b10610151576101356201518082610aa7565b60058054919250600061014783610abe565b9190505550610114565b505b336000908152600260209081526040808320600554845290915290205460ff16156101c05760405162461bcd60e51b815260206004820152601d60248201527f506c617965722068617320706c6179656420666f72207468652064617900000060448201526064016100e2565b3332146101df5760405162461bcd60e51b81526004016100e290610a49565b6000805b60068110156103605782816006811061020c57634e487b7160e01b600052603260045260246000fd5b602002015160011415610227578161022381610abe565b9250505b82816006811061024757634e487b7160e01b600052603260045260246000fd5b602002015160021415610262578161025e81610abe565b9250505b82816006811061028257634e487b7160e01b600052603260045260246000fd5b60200201516003141561029d578161029981610abe565b9250505b8281600681106102bd57634e487b7160e01b600052603260045260246000fd5b6020020151600414156102d857816102d481610abe565b9250505b8281600681106102f857634e487b7160e01b600052603260045260246000fd5b602002015160051415610313578161030f81610abe565b9250505b82816006811061033357634e487b7160e01b600052603260045260246000fd5b60200201516006141561034e578161034a81610abe565b9250505b8061035881610abe565b9150506101e3565b5033600081815260086020908152604080832060058054855290835281842086905584845260028352818420815485528352818420805460ff19166001908117909155905484526009835281842080549182018155845291832090910180546001600160a01b031916909317909255905182917f58b6c1f580d8b324a7150d36a98c41df7f97587cfff6a762441a4c31bc142e9891a25050565b6004544210156104425760405162461bcd60e51b815260206004820152601360248201527211d85b59481a185cdb89dd081cdd185c9d1959606a1b60448201526064016100e2565b6004546104529062015180610a8f565b42106104aa576004546000906104689042610aa7565b90505b600061047a6201518083610aa7565b106104a85761048c6201518082610aa7565b60058054919250600061049e83610abe565b919050555061046b565b505b336000908152600260209081526040808320600554845290915290205460ff16156105175760405162461bcd60e51b815260206004820152601d60248201527f506c617965722068617320706c6179656420666f72207468652064617900000060448201526064016100e2565b3332146105365760405162461bcd60e51b81526004016100e290610a49565b61053e610859565b6003546012111561063157600061055361089d565b90506000805b6003548110156105b457826000600301828154811061058857634e487b7160e01b600052603260045260246000fd5b906000526020600020015414156105a257600191506105b4565b806105ac81610abe565b915050610559565b508061062a57600380546001818101835560008390527fc2575a0e9e593c00f959f8c92f12db2869c3395a3b0502d05e2516446f71f85b90910184905581548492916105ff91610aa7565b8154811061061d57634e487b7160e01b600052603260045260246000fd5b6000918252602090912001555b505061053e565b6040517f269b25a8d61305854c650b5c3386946d8c584bee96c267c38fe80e3485f31b3c9061066290600390610a02565b60405180910390a1565b60055460009081526009602052604090205460609067ffffffffffffffff8111156106a757634e487b7160e01b600052604160045260246000fd5b6040519080825280602002602001820160405280156106ec57816020015b60408051808201909152600080825260208201528152602001906001900390816106c55790505b50905060005b60055460009081526009602052604090205481101561081e576005546000908152600960205260408120805460089183918590811061074157634e487b7160e01b600052603260045260246000fd5b60009182526020808320909101546001600160a01b0316835282810193909352604091820181206005548252835281812054600990935290812080549293509091849081106107a057634e487b7160e01b600052603260045260246000fd5b9060005260206000200160009054906101000a90046001600160a01b031690506040518060400160405280826001600160a01b03168152602001838152508484815181106107fe57634e487b7160e01b600052603260045260246000fd5b60200260200101819052505050808061081690610abe565b9150506106f2565b507ff7f10e4431f219031a079fe20d92e2aaaf4e5f68352b410a6ca357c90dbbecff8160405161084e91906109aa565b60405180910390a190565b6003541561089b57600380548061088057634e487b7160e01b600052603160045260246000fd5b60019003818190600052602060002001600090559055610859565b565b6000805460129082806108af83610abe565b90915550506000805460405183916108f1914291903390602001928352602083019190915260601b6bffffffffffffffffffffffff1916604082015260540190565b6040516020818303038152906040528051906020012060001c6109149190610ad9565b9050610921816001610a8f565b9250505090565b600060c08284031215610939578081fd5b82601f830112610947578081fd5b60405160c0810181811067ffffffffffffffff8211171561096a5761096a610b0f565b604052808360c0810186101561097e578384fd5b835b600681101561099f578135835260209283019290910190600101610980565b509195945050505050565b602080825282518282018190526000919060409081850190868401855b828110156109f557815180516001600160a01b031685528601518685015292840192908501906001016109c7565b5091979650505050505050565b6020808252825482820181905260008481528281209092916040850190845b81811015610a3d57835483526001938401939285019201610a21565b50909695505050505050565b60208082526026908201527f506c6179657220686173206265656e207265676973746572656420666f72207460408201526568652064617960d01b606082015260800190565b60008219821115610aa257610aa2610af9565b500190565b600082821015610ab957610ab9610af9565b500390565b6000600019821415610ad257610ad2610af9565b5060010190565b600082610af457634e487b7160e01b81526012600452602481fd5b500690565b634e487b7160e01b600052601160045260246000fd5b634e487b7160e01b600052604160045260246000fdfea26469706673582212205c50fe25b4a188f9ce6cd23de2c3071b100463ef5cdb4c95693c592a1a15996064736f6c63430008040033",
  "linkReferences": {},
  "deployedLinkReferences": {}
}